:100000000C945D000C9485000C9485000C94850084
:100010000C9485000C9485000C9485000C9485004C
:100020000C9485000C9485000C9485000C9485003C
:100030000C9485000C9485000C9485000C9485002C
:100040000C948B040C9485000C9459040C94330488
:100050000C9485000C9485000C9485000C9485000C
:100060000C94D5040C9485000000000800020100E7
:100070000003040700000000000000000000000072
:10008000250028002B0000000000240027002A0083
:10009000040404040404040402020202020203032E
:1000A0000303030301020408102040800102040836
:1000B0001020010204081020F40511241FBECFEF08
:1000C000D8E0DEBFCDBF11E0A0E0B1E0EEE8FEE099
:1000D00002C005900D92A03BB107D9F723E0A0EB39
:1000E000B1E001C01D92A031B207E1F710E0CDE50B
:1000F000D0E004C02197FE010E943F07CC35D10714
:10010000C9F70E942D060C9445070C94000090E05E
:10011000FC01EC55FF4F249180579F4FFC018491C7
:10012000882399F090E0880F991FFC01EA57FF4F50
:10013000A591B491FC01E458FF4F859194918FB73C
:10014000F894EC91E22BEC938FBF08950895E09121
:100150006502F0916602309729F0109260021092C9
:100160005F0209940895CF93DF93AC01E09163029D
:10017000F09164023097F1F09091620280916102F7
:100180009817C0F090E0292F30E02617370754F475
:10019000D901AE53BE4F240F351FE90128812C939E
:1001A0009F5FF1CF1092620260936102CB01DF91F9
:1001B000CF910994DF91CF910895AF92BF92CF92E2
:1001C000DF92EF92FF920F931F93CF93DF936C0117
:1001D0007B018B01040F151FEB015E01AE18BF08F8
:1001E000C017D10759F06991D601ED91FC910190AA
:1001F000F081E02DC6010995892B79F7C501DF91C2
:10020000CF911F910F91FF90EF90DF90CF90BF9013
:10021000AF900895FC01538D448D252F30E0842F3D
:1002200090E0821B930B541710F0CF96089501971E
:100230000895FC01918D828D981761F0A28DAE0F0B
:10024000BF2FB11D5D968C91928D9F5F9F73928F92
:1002500090E008958FEF9FEF0895FC01918D828DBE
:10026000981731F0828DE80FF11D858D90E008958B
:100270008FEF9FEF0895FC01918D228D892F90E0E3
:10028000805C9F4F821B91098F739927089587E6A1
:1002900092E00E943B0121E0892B09F420E0822FAB
:1002A000089580E090E0892B29F00E944701811198
:1002B0000C9400000895FC01A48DA80FB92FB11D66
:1002C000A35ABF4F2C91848D90E001968F7399278C
:1002D000848FA689B7892C93A089B1898C9183706A
:1002E00080648C93938D848D981306C00288F38963
:1002F000E02D80818F7D80830895EF92FF920F9390
:100300001F93CF93DF93EC0181E0888F9B8D8C8DC1
:1003100098131AC0E889F989808185FF15C09FB7B5
:10032000F894EE89FF896083E889F9898081837078
:10033000806480839FBF81E090E0DF91CF911F9127
:100340000F91FF90EF900895F62E0B8D10E00F5F48
:100350001F4F0F731127E02E8C8D8E110CC00FB61E
:1003600007FCFACFE889F989808185FFF5CFCE01B6
:100370000E945B01F1CFEB8DEC0FFD2FF11DE35AD5
:10038000FF4FF0829FB7F8940B8FEA89FB89808139
:100390008062CFCFCF93DF93EC01888D8823B9F0B3
:1003A000AA89BB89E889F9898C9185FD03C0808180
:1003B00086FD0DC00FB607FCF7CF8C9185FFF2CFFD
:1003C000808185FFEDCFCE010E945B01E9CFDF91F7
:1003D000CF91089590E0FC01E859FF4F2491FC0172
:1003E000EC55FF4F3491FC01E057FF4FE491EE23B1
:1003F000C9F0222339F0233001F1A8F4213019F19A
:10040000223029F1F0E0EE0FFF1FE458FF4FA591D5
:10041000B4918FB7F894EC91611126C030953E23CA
:100420003C938FBF08952730A9F02830C9F02430BD
:1004300049F7809180008F7D03C0809180008F7785
:1004400080938000DFCF84B58F7784BDDBCF84B508
:100450008F7DFBCF8091B0008F778093B000D2CF9B
:100460008091B0008F7DF9CF3E2BDACF3FB7F89463
:100470008091570290915802A0915902B0915A026E
:1004800026B5A89B05C02F3F19F00196A11DB11DEF
:100490003FBFBA2FA92F982F8827BC01CD01620F2B
:1004A000711D811D911D42E0660F771F881F991FE6
:1004B0004A95D1F7089520910802260F3327331F5C
:1004C00021323105ECF420912C02FC0190E080E017
:1004D000243069F082E00895A09108022191AC01D6
:1004E00048515E4FA40FB52FB11D2C93019686176E
:1004F00098F380910802680F6093080280E00895E5
:1005000081E0089510922C0281E080932E021092D7
:100510002D0261E082E10E94EA0161E083E10E9434
:10052000EA01E9EBF0E080818E7F808380818D7F1E
:10053000808388E48093B80085E48093BC000895AC
:100540000895E091620280916102E81730F4F0E0D2
:10055000EE53FE4F808190E008958FEF9FEF089556
:1005600090916202809161022FEF3FEF981748F45B
:10057000E92FF0E0EE53FE4F208130E09F5F909333
:100580006202C90108958091610290916202891B03
:10059000990B0895CF93DF93CB01EA01642F0E945A
:1005A0005B02CE01DF91CF910895CF93DF931F922D
:1005B000CDB7DEB7698361E0CE0101960E945B0290
:1005C00081E090E00F90DF91CF91089590E080E07E
:1005D0000895FC0101900020E9F73197AF01481B15
:1005E000590BBC0187E692E00C94DD00CF93DF93BA
:1005F00085ED8093BC008091E4019091E501A0918C
:10060000E601B091E7010796A11DB11D23E0B69563
:10061000A795979587952A95D1F72091BC0024FD41
:1006200003C010922C0236C04091E4015091E501C4
:100630006091E6017091E701452B462B472B69F34A
:100640000097A105B10541F025E32A95F1F70000D7
:100650000197A109B109E1CF8091E30191E0909365
:10066000E2018823B9F0C091B800D091BA0080911E
:10067000BC008A7B8093BC0060E082E10E94EA01BA
:1006800060E083E10E94EA010E948202D093BA00F6
:10069000C093B800DF91CF9108958F929F92AF924F
:1006A000BF92CF92DF92EF92FF920F931F93CF935F
:1006B000DF93CDB7DEB7A1970FB6F894DEBF0FBEBC
:1006C000CDBF00EB11E08AE0882E912CA12CB12C3B
:1006D0009091610280916202981709F4B1C084E0A0
:1006E00093E00E94B002F801819391938F0184E21C
:1006F00091E00E94E902F8013297C080D1800D2C70
:10070000000CEE08FF08F7FE39C06DE287E692E0C4
:100710000E947D0122273327A9012C193D094E098A
:100720005F0919A2CE0181967C01CA01B901A50118
:1007300094010E941D07605DF70162937F012115FE
:1007400031054105510589F7E114F10419F0C7019C
:100750000E94E9028FE291E00E94E9028091B001DB
:100760009091B10181309105F9F460E082E00E943E
:10077000EA0182E391E00E94E902AACFA701960173
:1007800019A2CE0181967C01CA01B901A50194018B
:100790000E941D07605DF70162937F0121153105FD
:1007A0004105510589F7D0CF8230910539F461E0D8
:1007B00082E00E94EA018DE391E0DDCF8330910574
:1007C00039F460E083E00E94EA0189E491E0D3CF4C
:1007D0008430910539F461E083E00E94EA0184E508
:1007E00091E0C9CF8530910539F460E084E00E9442
:1007F000EA0180E691E0BFCF8630910539F461E0EF
:1008000084E00E94EA018AE691E0B5CF8730910545
:1008100039F460E085E00E94EA0185E791E0ABCF22
:10082000089739F461E085E00E94EA018EE791E0E3
:10083000A2CF88E891E00E94E9028FE291E09BCF8D
:10084000A1960FB6F894DEBF0FBECDBFDF91CF915A
:100850001F910F91FF90EF90DF90CF90BF90AF90DE
:100860009F908F9008951F920F920FB60F921124B0
:100870002F933F934F935F936F937F938F939F93A8
:10088000AF93BF93EF93FF9387E692E00E945B01E3
:10089000FF91EF91BF91AF919F918F917F916F9158
:1008A0005F914F913F912F910F900FBE0F901F902E
:1008B00018951F920F920FB60F9211242F938F93BA
:1008C0009F93EF93FF93E0917702F09178028081FC
:1008D000E0917D02F0917E0282FD1BC090818091AB
:1008E00080028F5F8F7320918102821741F0E09127
:1008F0008002F0E0E959FD4F958F80938002FF91CF
:10090000EF919F918F912F910F900FBE0F901F909D
:1009100018958081F4CF1F920F920FB60F92112479
:100920002F933F938F939F93AF93BF9380915302E5
:1009300090915402A0915502B0915602309152020A
:1009400023E0230F2D3758F50196A11DB11D2093EB
:1009500052028093530290935402A0935502B09395
:1009600056028091570290915802A0915902B0917D
:100970005A020196A11DB11D80935702909358020F
:10098000A0935902B0935A02BF91AF919F918F915A
:100990003F912F910F900FBE0F901F90189526E852
:1009A000230F0296A11DB11DD2CF1F920F920FB639
:1009B0000F9211242F933F934F935F936F937F93E5
:1009C0008F939F93AF93BF93EF93FF938091B90061
:1009D000887F803609F44AC0F0F5883209F4A7C050
:1009E00018F5803109F49BC0B8F4882309F4F9C0E4
:1009F000883009F494C0FF91EF91BF91AF919F911E
:100A00008F917F916F915F914F913F912F910F90B7
:100A10000FBE0F901F901895883109F488C080325E
:100A200051F780932B0214C0803409F49DC040F428
:100A30008033B9F38833F9F680932B0285ECB0C08C
:100A4000803509F485C0883509F496C0883499F654
:100A50000E94F602D0CF883909F48CC038F5883767
:100A600029F050F4883611F0803729F683E080931E
:100A70002C0210922A0257C0883809F47BC08039B2
:100A800019F0803809F0B7CF80912A02803208F03F
:100A900071C0E0912A0281E08E0F80932A0280913A
:100AA000BB00F0E0E65FFD4F80833DC0803B39F046
:100AB000E0F4803A09F479C0883A09F09CCF84E0E8
:100AC00080932C021092090210920802E0915D02BC
:100AD000F0915E0209958091080281110FC081E0BA
:100AE000809308021092E80109C0803C09F4A6CF67
:100AF000883C09F4A3CF883B09F07DCFE09109023F
:100B000081E08E0F80930902F0E0E851FE4F808172
:100B10008093BB00909109028091080229C08091C6
:100B200051028093BB0085EC8093BC0064CF909110
:100B3000500280914F02981758F5E091500281E0E1
:100B40008E0F80935002F0E0E15DFD4F8081E9CF90
:100B5000E091500281E08E0F809350028091BB00A3
:100B6000F0E0E15DFD4F80839091500280914F0253
:100B70009817C8F285E8D8CFE091500281E08E0F37
:100B8000809350028091BB00F0E0E15DFD4F8083D7
:100B900080912E0281115CCF81E080932D0284EA46
:100BA0008093BC0010922C0226CF85EC8093BC0071
:100BB00010922C0280912A02803230F4E0912A02B5
:100BC000F0E0E65FFD4F108260912A0270E0E09154
:100BD0005B02F0915C028AE092E0099510922A0291
:100BE0000ACF10922B0234CFE7E6F2E01382128292
:100BF00088EE93E0A0E0B0E084839583A683B7837A
:100C000024E031E03183208325EC30E035872487F0
:100C100024EC30E03787268720EC30E0318B208BC6
:100C200021EC30E0338B228B22EC30E0358B248BAF
:100C300026EC30E0378B268B118E128E138E148E9D
:100C4000E4E0F3E01382128284839583A683B78362
:100C500086E191E0918380830895789484B58260E1
:100C600084BD84B5816084BD85B5826085BD85B550
:100C7000816085BD80916E00816080936E001092CE
:100C80008100809181008260809381008091810049
:100C900081608093810080918000816080938000DA
:100CA0008091B10084608093B1008091B000816038
:100CB0008093B00080917A00846080937A00809164
:100CC0007A00826080937A0080917A0081608093BC
:100CD0007A0080917A00806880937A001092C10037
:100CE00082E00E94870061E082E00E94EA0183E0E6
:100CF0000E94870061E083E00E94EA0184E00E9494
:100D0000870061E084E00E94EA0185E00E9487009C
:100D100061E085E00E94EA01E0917702F0917802BB
:100D200082E08083E0917302F09174021082E0917E
:100D30007502F09176028FEC808310927F02E09131
:100D40007B02F0917C0286E08083E0917902F09151
:100D50007A02808180618083E0917902F0917A0249
:100D6000808188608083E0917902F0917A028081AD
:100D700080688083E0917902F0917A0280818F7D92
:100D800080831092620210926102109260021092AF
:100D90005F020E94820287EA90E090935E02809355
:100DA0005D0283EB90E090935C0280935B0280E1B4
:100DB0008093BA008DE493E0909364028093630281
:100DC00086EA90E0909366028093650285EA91E05E
:100DD0000E94E9028FE291E00E94E902C0E0D0E0C7
:100DE0000E9436024B015C0184E6C82ED12CE12C16
:100DF000F12C0E943602681979098A099B09683E1C
:100E0000734081059105A8F321E0C21AD108E108D9
:100E1000F10888EE880E83E0981EA11CB11CC11455
:100E2000D104E104F10429F72097D1F20E9447018F
:100E30008823B1F20E940000D3CFA1E21A2EAA1B90
:100E4000BB1BFD010DC0AA1FBB1FEE1FFF1FA2177A
:100E5000B307E407F50720F0A21BB30BE40BF50B77
:100E6000661F771F881F991F1A9469F76095709500
:100E7000809590959B01AC01BD01CF010895EE0FC7
:0E0E8000FF1F0590F491E02D0994F894FFCF28
:100E8E00000000007D01DD000A01CA013B011901CD
:100E9E002D0100000000D502CA02E602A002C30224
:100EAE00B002A102476F7420646174613A20000D94
:100EBE000A004D6F746F722031206F6E004D6F748B
:100ECE006F722031206F6666004D6F746F72203224
:100EDE00206F6E004D6F746F722032206F66660049
:100EEE004C6967687473206F6E004C696768747321
:100EFE00206F666600446F736572206F6E00446FDC
:100F0E00736572206F6666004E6F2066756E637431
:100F1E00696F6E20666F72207468697320616464F5
:100F2E007265737300493243205265616479210002
:107E0000112484B714BE81FFF0D085E080938100F7
:107E100082E08093C00088E18093C10086E0809377
:107E2000C20080E18093C4008EE0C9D0259A86E02C
:107E300020E33CEF91E0309385002093840096BBD3
:107E4000B09BFECF1D9AA8958150A9F7CC24DD24C4
:107E500088248394B5E0AB2EA1E19A2EF3E0BF2EE7
:107E6000A2D0813461F49FD0082FAFD0023811F036
:107E7000013811F484E001C083E08DD089C08234E0
:107E800011F484E103C0853419F485E0A6D080C0E4
:107E9000853579F488D0E82EFF2485D0082F10E0AE
:107EA000102F00270E291F29000F111F8ED06801E7
:107EB0006FC0863521F484E090D080E0DECF843638
:107EC00009F040C070D06FD0082F6DD080E0C81688
:107ED00080E7D80618F4F601B7BEE895C0E0D1E017
:107EE00062D089930C17E1F7F0E0CF16F0E7DF06D8
:107EF00018F0F601B7BEE89568D007B600FCFDCFD4
:107F0000A601A0E0B1E02C9130E011968C91119780
:107F100090E0982F8827822B932B1296FA010C0160
:107F200087BEE89511244E5F5F4FF1E0A038BF0790
:107F300051F7F601A7BEE89507B600FCFDCF97BE46
:107F4000E89526C08437B1F42ED02DD0F82E2BD052
:107F50003CD0F601EF2C8F010F5F1F4F84911BD097
:107F6000EA94F801C1F70894C11CD11CFA94CF0C13
:107F7000D11C0EC0853739F428D08EE10CD085E9AC
:107F80000AD08FE07ACF813511F488E018D01DD067
:107F900080E101D065CF982F8091C00085FFFCCF94
:107FA0009093C60008958091C00087FFFCCF809118
:107FB000C00084FD01C0A8958091C6000895E0E648
:107FC000F0E098E1908380830895EDDF803219F02E
:107FD00088E0F5DFFFCF84E1DECF1F93182FE3DFCA
:107FE0001150E9F7F2DF1F91089580E0E8DFEE27F6
:047FF000FF270994CA
:027FFE00040479
:0400000300007E007B
:00000001FF
