:100000000C94DA000C9402010C9402010C9402018D
:100010000C9402010C9402010C9402010C94020154
:100020000C9402010C9402010C9402010C94020144
:100030000C9402010C9402010C9402010C94020134
:100040000C9467060C9402010C9435060C940F0670
:100050000C9402010C9402010C9402010C94020114
:100060000C94B1060C94020100407A10F35A00A0DF
:10007000724E18090010A5D4E80000E87648170071
:1000800000E40B54020000CA9A3B000000E1F505B1
:10009000000080969800000040420F000000A086FB
:1000A00001000000102700000000E803000000002D
:1000B0006400000000000A000000000001000000D1
:1000C00000002C76D888DC674F0823DFC1DFAE59EB
:1000D000E1B1B796E5E3E453C63AE651997696E87E
:1000E000E6C28426EB898C9B62ED407C6FFCEFBC02
:1000F0009C9F40F2BAA56FA5F490055A2AF75C932D
:100100006B6CF9676DC11BFCE0E40D47FEF520E662
:10011000B500D0ED902E0300943577050080841E45
:10012000080000204E0A000000C80C333333330FA0
:10013000986E12831141EF8D2114893BE65516CF3D
:10014000FEE6DB18D1844B381BF77C1D901DA4BB49
:10015000E424203284725E228100C9F124ECA1E5FE
:100160003D27000000080002010000030407000012
:1001700000000000000000000000250028002B0007
:1001800000000000240027002A00040404040404E2
:100190000404020202020202030303030303010236
:1001A0000408102040800102040810200102040805
:1001B0001020D00711241FBECFEFD8E0DEBFCDBF87
:1001C00011E0A0E0B1E0EAEEFAE102C005900D9284
:1001D000A43FB107D9F723E0A4EFB1E001C01D921D
:1001E000A835B207E1F710E0CAEDD0E004C02197CE
:1001F000FE010E946D0DC93DD107C9F70E94090893
:100200000C94730D0C94000090E0FC01E256FE4F3C
:10021000249186579E4FFC018491882399F090E0A9
:10022000880F991FFC01E058FE4FA591B491FC0185
:10023000EA58FE4F859194918FB7F894EC91E22B98
:10024000EC938FBF0895E091AD02F091AE0230972C
:1002500029F01092A8021092A70209940895CF9352
:10026000DF93AC01E091AB02F091AC023097F1F07A
:100270009091AA028091A9029817C0F090E0292FCE
:1002800030E02617370754F4D901A65FBD4F240F7D
:10029000351FE90128812C939F5FF1CF1092AA02AC
:1002A0006093A902CB01DF91CF910994DF91CF91A7
:1002B0000895AF92BF92CF92DF92EF92FF920F9389
:1002C0001F93CF93DF936C017B018B01040F151FEC
:1002D000EB015E01AE18BF08C017D10759F0699154
:1002E000D601ED91FC910190F081E02DC6010995B8
:1002F000892B79F7C501DF91CF911F910F91FF9065
:10030000EF90DF90CF90BF90AF900895FC01538D98
:10031000448D252F30E0842F90E0821B930B5417DF
:1003200010F0CF96089501970895FC01918D828D6C
:10033000981761F0A28DAE0FBF2FB11D5D968C9105
:10034000928D9F5F9F73928F90E008958FEF9FEF44
:100350000895FC01918D828D981731F0828DE80F00
:10036000F11D858D90E008958FEF9FEF0895FC01BA
:10037000918D228D892F90E0805C9F4F821B910987
:100380008F73992708958FEA92E00E94B70121E0C8
:10039000892B09F420E0822F089580E090E0892BDA
:1003A00029F00E94C30181110C9400000895FC0102
:1003B000A48DA80FB92FB11DA35ABF4F2C91848DC6
:1003C00090E001968F739927848FA689B7892C9323
:1003D000A089B1898C91837080648C93938D848D76
:1003E000981306C00288F389E02D80818F7D808379
:1003F0000895EF92FF920F931F93CF93DF93EC0139
:1004000081E0888F9B8D8C8D98131AC0E889F989BB
:10041000808185FF15C09FB7F894EE89FF896083BE
:10042000E889F98980818370806480839FBF81E03F
:1004300090E0DF91CF911F910F91FF90EF90089581
:10044000F62E0B8D10E00F5F1F4F0F731127E02E5C
:100450008C8D8E110CC00FB607FCFACFE889F98994
:10046000808185FFF5CFCE010E94D701F1CFEB8DC2
:10047000EC0FFD2FF11DE35AFF4FF0829FB7F89468
:100480000B8FEA89FB8980818062CFCFCF93DF9386
:10049000EC01888D8823B9F0AA89BB89E889F9899C
:1004A0008C9185FD03C0808186FD0DC00FB607FCD1
:1004B000F7CF8C9185FFF2CF808185FFEDCFCE0104
:1004C0000E94D701E9CFDF91CF91089590E0FC0120
:1004D000EE59FE4F2491FC01E256FE4F3491FC018F
:1004E000E657FE4FE491EE23C9F0222339F0233082
:1004F00001F1A8F4213019F1223029F1F0E0EE0FDA
:10050000FF1FEA58FE4FA591B4918FB7F894EC9174
:10051000611126C030953E233C938FBF089527304C
:10052000A9F02830C9F0243049F7809180008F7DF0
:1005300003C0809180008F7780938000DFCF84B5E7
:100540008F7784BDDBCF84B58F7DFBCF8091B000EA
:100550008F778093B000D2CF8091B0008F7DF9CF9C
:100560003E2BDACF8E50806480937C0080917A009D
:10057000806480937A0080917A0086FDFCCF809120
:1005800078009091790008953FB7F89480919F0288
:100590009091A002A091A102B091A20226B5A89BC1
:1005A00005C02F3F19F00196A11DB11D3FBFBA2F05
:1005B000A92F982F8827BC01CD01620F711D811DC5
:1005C000911D42E0660F771F881F991F4A95D1F74A
:1005D000089520915002260F3327331F2132310511
:1005E000ECF420917402FC0190E080E0243069F08A
:1005F00082E00895A09150022191AC01405D5D4FD1
:10060000A40FB52FB11D2C930196861798F38091F6
:100610005002680F6093500280E0089581E00895D1
:100620001092740281E0809376021092750261E06C
:1006300082E10E94660261E083E10E946602E9EBCA
:10064000F0E080818E7F808380818D7F808388E44D
:100650008093B80085E48093BC0008950895E091EC
:10066000AA028091A902E81730F4F0E0E65FFD4F9E
:10067000808190E008958FEF9FEF08959091AA02F6
:100680008091A9022FEF3FEF981748F4E92FF0E08F
:10069000E65FFD4F208130E09F5F9093AA02C90181
:1006A00008958091A9029091AA02891B990B08953F
:1006B000CF93DF93CB01EA01642F0E94E902CE01C0
:1006C000DF91CF910895CF93DF931F92CDB7DEB71F
:1006D000698361E0CE0101960E94E90281E090E029
:1006E0000F90DF91CF91089590E080E00895FC0194
:1006F00001900020E9F73197AF01481B590BBC016D
:100700008FEA92E00C9459018F929F92AF92BF9220
:100710000F931F93CF93DF93CDB7DEB7A1970FB69B
:10072000F894DEBF0FBECDBF19A2423008F44AE0F4
:100730008E010F5D1F4F842E912CB12CA12CA50191
:1007400094010E944B0DE62FB901CA01EA30F4F47E
:10075000E05DD801EE938D01232B242B252B79F717
:1007600090E080E0109719F0CD010E947703A196E8
:100770000FB6F894DEBF0FBECDBFDF91CF911F91B2
:100780000F91BF90AF909F908F900895E95CE1CF5B
:10079000CF93DF930E947703EC0184E291E00E9403
:1007A00077038C0F9D1FDF91CF9108954F925F9239
:1007B0006F927F928F929F92AF92BF92CF92DF9271
:1007C000EF92FF926B017C01AC019B010E94460DF0
:1007D0008823C1F087E291E00E9477037C0184E2E4
:1007E00091E00E9477038E0D9F1DFF90EF90DF90A8
:1007F000CF90BF90AF909F908F907F906F905F90C1
:100800004F90089546015701E894B7F82FEF3FEF56
:100810004FE75FE7C501B4010E94460D81110DC08D
:100820002FEF3FEF4FE75FE7C501B4010E94EE0BEA
:1008300018161CF48BE291E0CFCF2FEF3FEF4FE77C
:100840005FE4C701B6010E94D40C18161CF48FE2B5
:1008500091E0C2CF2FEF3FEF4FE75FECC701B6014A
:100860000E94EE0B87FDF3CF20E030E0A901C70125
:10087000B6010E94EE0BB12CA12C87FF0AC06DE2DD
:100880008FEA92E00E94F9015C01F7FAF094F7F820
:10089000F0942AE037ED43EA5BE3C701B6010E941A
:1008A000820B2B013C010E94F30B6B017C010E9427
:1008B000220C9B01AC01C301B2010E94810B2B01F0
:1008C0003C014AE0C701B6010E9484037C01EA0CA6
:1008D000FB1C6EE28FEA92E00E94F901E80EF91E1D
:1008E00020E030E040E251E4C301B2010E94D90CA3
:1008F0002B013C010E94F30B4B01B12CA12C4AE0CF
:10090000C501B4010E948403E80EF91EC501B401BB
:100910000E94220C9B01AC01C301B2010E94810B19
:1009200020E030E040E251E40E94D90C0E94F30B39
:1009300090E080E04AE00E948403E80EF91E4FCF69
:10094000CF92DF92EF92FF92CF93DF93C4EFD1E08B
:100950009091A9028091AA02981709F4C0C08CE472
:1009600093E00E943E038993999383E391E00E9470
:100970007703FE013297C080D1800D2C000CEE0869
:10098000FF084AE0C701B601F7FE0DC06DE28FEA2D
:1009900092E00E94F90166277727CB016C197D0947
:1009A0008E099F094AE00E94840384E291E00E943C
:1009B00077038091F4019091F5018130910549F41C
:1009C00060E082E00E9466028EE391E00E9477037D
:1009D000BFCF8230910549F461E082E00E94660257
:1009E00089E491E00E94C803B3CF8330910539F4C4
:1009F00060E083E00E94660285E591E0F3CF8430F9
:100A0000910539F461E083E00E94660280E691E09E
:100A1000E9CF8530910539F460E084E00E946602F8
:100A20008CE691E0D3CF8630910539F461E084E023
:100A30000E94660286E791E0C9CF8730910539F4BC
:100A400060E085E00E94660281E891E0CBCF8830CB
:100A5000910539F461E085E00E9466028AE891E040
:100A6000C1CF8930910511F58FE00E94B202BC011F
:100A7000990F880B990B0E94240C2AE038E240EA77
:100A80005BE30E94D90C6B017C0184E991E00E9438
:100A90007703C701B6010E94D603C0920602D09226
:100AA0000702E0920802F092090252CF892BA1F4CA
:100AB0008EE00E94B202BC01990F880B990B0E9434
:100AC000240C2AE038E240EA5BE30E94D90C6B0177
:100AD0007C018EE991E0DBCF88EA91E083CFDF9162
:100AE000CF91FF90EF90DF90CF9008950F931F93D9
:100AF000CF93DF93CDB7DEB728970FB6F894DEBF5C
:100B00000FBECDBF85EC91E00E9477036091060295
:100B10007091070280910802909109020E94D60309
:100B2000609106027091070280910802909109027B
:100B30008E010F5F1F4F22E046E00E94F50886ED10
:100B400091E00E947703C8010E94C80348E050E08A
:100B5000B8018CE493E00E94580328960FB6F894ED
:100B6000DEBF0FBECDBFDF91CF911F910F910895D2
:100B7000CF93DF9385ED8093BC0080912C02909100
:100B80002D02A0912E02B0912F020796A11DB11D3A
:100B900023E0B695A795979587952A95D1F720914B
:100BA000BC0024FD03C01092740236C040912C0298
:100BB00050912D0260912E0270912F02452B462BF1
:100BC000472B69F30097A105B10541F025E32A956C
:100BD000F1F700000197A109B109E1CF80912B0243
:100BE00091E090932A028823B9F0C091B800D09187
:100BF000BA008091BC008A7B8093BC0060E082E1F7
:100C00000E94660260E083E10E9466020E94100377
:100C1000D093BA00C093B800DF91CF9108951F928E
:100C20000F920FB60F9211242F933F934F935F9320
:100C30006F937F938F939F93AF93BF93EF93FF93A4
:100C40008FEA92E00E94D701FF91EF91BF91AF919F
:100C50009F918F917F916F915F914F913F912F91D4
:100C60000F900FBE0F901F9018951F920F920FB606
:100C70000F9211242F938F939F93EF93FF93E09103
:100C8000BF02F091C0028081E091C502F091C602DE
:100C900082FD1BC090818091C8028F5F8F7320916D
:100CA000C902821741F0E091C802F0E0E155FD4F22
:100CB000958F8093C802FF91EF919F918F912F9113
:100CC0000F900FBE0F901F9018958081F4CF1F9248
:100CD0000F920FB60F9211242F933F938F939F93F0
:100CE000AF93BF9380919B0290919C02A0919D0233
:100CF000B0919E0230919A0223E0230F2D3758F5D0
:100D00000196A11DB11D20939A0280939B0290939E
:100D10009C02A0939D02B0939E0280919F029091AD
:100D2000A002A091A102B091A2020196A11DB11D45
:100D300080939F029093A002A093A102B093A2027D
:100D4000BF91AF919F918F913F912F910F900FBEC7
:100D50000F901F90189526E8230F0296A11DB11D34
:100D6000D2CF1F920F920FB60F9211242F933F9361
:100D70004F935F936F937F938F939F93AF93BF93A3
:100D8000EF93FF938091B900887F803609F44AC0C1
:100D9000F0F5883209F4A7C018F5803109F49BC03A
:100DA000B8F4882309F4F9C0883009F494C0FF919D
:100DB000EF91BF91AF919F918F917F916F915F91D3
:100DC0004F913F912F910F900FBE0F901F9018954C
:100DD000883109F488C0803251F78093730214C0BF
:100DE000803409F49DC040F48033B9F38833F9F6B8
:100DF0008093730285ECB0C0803509F485C08835D6
:100E000009F496C0883499F60E94B805D0CF883985
:100E100009F48CC038F5883729F050F4883611F081
:100E2000803729F683E0809374021092720257C0D3
:100E3000883809F47BC0803919F0803809F0B7CFC1
:100E400080917202803208F071C0E091720281E0FC
:100E50008E0F809372028091BB00F0E0EE5AFD4F3E
:100E600080833DC0803B39F0E0F4803A09F479C0DA
:100E7000883A09F09CCF84E080937402109251026A
:100E800010925002E091A502F091A602099580917E
:100E9000500281110FC081E0809350021092300205
:100EA00009C0803C09F4A6CF883C09F4A3CF883B55
:100EB00009F07DCFE091510281E08E0F80935102C5
:100EC000F0E0E05DFD4F80818093BB009091510286
:100ED0008091500229C0809199028093BB0085ECDB
:100EE0008093BC0064CF90919802809197029817EC
:100EF00058F5E091980281E08E0F80939802F0E01F
:100F0000E958FD4F8081E9CFE091980281E08E0F92
:100F1000809398028091BB00F0E0E958FD4F8083F8
:100F200090919802809197029817C8F285E8D8CFDF
:100F3000E091980281E08E0F809398028091BB002F
:100F4000F0E0E958FD4F80838091760281115CCFFB
:100F500081E08093750284EA8093BC001092740251
:100F600026CF85EC8093BC001092740280917202AF
:100F7000803230F4E0917202F0E0EE5AFD4F1082C0
:100F80006091720270E0E091A302F091A40282E508
:100F900092E00995109272020ACF1092730234CF38
:100FA000EFEAF2E01382128288EE93E0A0E0B0E074
:100FB00084839583A683B78324E031E03183208343
:100FC00025EC30E03587248724EC30E0378726870E
:100FD00020EC30E0318B208B21EC30E0338B228B06
:100FE00022EC30E0358B248B26EC30E0378B268BDF
:100FF000118E128E138E148EECE4F3E013821282A3
:1010000084839583A683B78386E191E0918380836F
:101010000895789484B5826084BD84B5816084BD70
:1010200085B5826085BD85B5816085BD80916E0086
:10103000816080936E0010928100809181008260B7
:1010400080938100809181008160809381008091F4
:1010500080008160809380008091B10084608093E3
:10106000B1008091B00081608093B00080917A00DF
:10107000846080937A0080917A00826080937A0005
:1010800080917A00816080937A0080917A008068F4
:1010900080937A001092C10082E00E94040161E016
:1010A00082E00E94660283E00E94040161E083E026
:1010B0000E94660284E00E94040161E084E00E94D4
:1010C000660285E00E94040161E085E00E946602FC
:1010D000E091BF02F091C00282E08083E091BB0208
:1010E000F091BC021082E091BD02F091BE028FEC43
:1010F00080831092C702E091C302F091C40286E09F
:101100008083E091C102F091C2028081806180837E
:10111000E091C102F091C202808188608083E091F9
:10112000C102F091C202808180688083E091C10297
:10113000F091C20280818F7D80831092AA0210926A
:10114000A9021092A8021092A7020E94100383E243
:1011500091E09093A6028093A5028FE291E0909394
:10116000A4028093A30280E18093BA0080EA94E015
:101170009093AC028093AB0286E795E09093AE0229
:101180008093AD0288EE91E00E94C803C0E0D0E0F9
:101190000E94C4024B015C0184E6C82ED12CE12CD4
:1011A000F12C0E94C402681979098A099B09683EDA
:1011B000734081059105A8F321E0C21AD108E10826
:1011C000F10888EE880E83E0981EA11CB11CC114A2
:1011D000D104E104F10429F72097D1F20E94C30160
:1011E0008823B1F20E940000D3CFEF920F931F9398
:1011F000CF93DF93E80134E047FD34E1042E000C87
:10120000550B57FF03C0519541955109E32E022F0D
:10121000242FAE010E941309CE01DF91CF911F91BF
:101220000F91EF900895A9E0B0E0E9E1F9E00C94A6
:10123000500B6A01F22EB02E102FFBE3AF2EA0163A
:1012400008F41BE31F5F012F27E0AE014F5F5F4FE4
:101250000E94720ABC018981982F9970913009F41B
:101260003FC09BE2E1FC04C09E2D9170E0FC3AC0BF
:101270005E2D5071E82FE87083FF46C084E0911125
:1012800001C083E0EF2DE81B8F1508F0E0E0D601E8
:101290008E2F20E2552351F1992329F0D6019C93FA
:1012A000C60101966C0196012D5F3F4FE2FE24C0FE
:1012B0008EE4D6018C9391E411969C93119712962B
:1012C0008C93D9018E2F90E281111BC0E20FF32F76
:1012D000F11D10828EEF9FEF2996ECE00C946C0BC1
:1012E0009DE2C6CF90E2C4CF2D9381508111FCCFF7
:1012F000CE0ED11CE0E0D0CF8EE6D6018C9391E6E5
:10130000DBCF9D938150E0CF482F447082FF3DC0DA
:1013100084E0911101C083E08F1510F4EF2DE81BDC
:10132000D6018E2F20E2552309F1992329F0D60109
:101330009C93C60101966C0196012D5F3F4FE2FE22
:101340001BC089E4D6018C938EE411968C9311977F
:1013500086E412968C93D9018E2F90E2882309F4AB
:10136000B5CF9D938150FACF2D9381508111FCCF41
:10137000CE0ED11CE0E0D9CF89E6D6018C938EE663
:1013800011968C93119786E6E4CF9B0177FF02C0FC
:1013900030E020E0A1E0B0E0911102C0B0E0A0E0B8
:1013A000F9013196AE0FBF1F8B2C912CBB2009F495
:1013B00061C05401EFEFAE1ABE0AAA0DBB1DFA16AA
:1013C0001B0619F014F04F2D4A1B511188C0E3FC85
:1013D00059C07601A42FB0E2A1114FC0C40ED11C98
:1013E000992309F45BC040E0D6011196F601908381
:1013F0006D01552309F448C0012F060F9A81582F1B
:10140000507184FF03C0913309F4015010160CF0A1
:1014100047C0093008F008E0EEE2FE2E5B01A01A9A
:10142000B10885019194819491082F3F320729F4E6
:10143000D601FC92F60131966F016217730794F1A1
:10144000021713077CF5DB01A21BB30BAA24A3949C
:10145000B12CAC0EBD1EAA0DBB1D11968C91215056
:101460003109D601119628153905F4F0F60180836B
:101470006D01DBCFB12CA12CA0CFF701B1937F017F
:10148000A150AACF9111B0CFD601942F50E302C042
:101490005D9391509111FCCFC40ED11C40E0ACCFB4
:1014A00001E0BACF80E3DBCF6217730731F49633E4
:1014B00088F4953311F4552369F0F6018083FD011A
:1014C000842F90E2811108C0A40FB11D1C9290E0FE
:1014D00080E002CF81E3F1CF91938150F3CF91115E
:1014E00083CF8ACF283008F027E03327DA01990F1D
:1014F000311D87FD916000966105710539F43260F8
:101500002E5F3D9330E32A95E1F708959F3F30F039
:1015100080387105610509F03C5F3C5F3D93913077
:1015200008F08068911DDF93CF931F930F93FF9274
:10153000EF92192F987F9695E92F96959695E90F3A
:10154000FF27EE53FF4F99273327EE24FF24A701EF
:10155000E70105900894079428F4360FE71EF81E5B
:10156000491F511D660F771F881F991F0694A1F709
:101570000590079428F4E70EF81E491F561FC11D59
:10158000770F881F991F661F0694A1F7059007948F
:1015900028F4F80E491F561FC71FD11D880F991F29
:1015A000661F771F0694A1F70590079420F4490F52
:1015B000561FC71FD81F990F661F771F881F0694D5
:1015C000A9F784911095177041F0D695C795579556
:1015D0004795F794E7941A95C1F7E8E6F0E0689428
:1015E0001590159135916591959105907FE27395D0
:1015F000E118F10A430B560BC90BD009C0F7E10CF7
:10160000F11E431F561FC91FD01D7EF4703311F405
:101610008A95E6CFE894015030F0080F0AF40027CD
:10162000021708F4202F2395022F7A3328F079E34C
:101630007D932A95E9F710C07D932A9589F6069443
:1016400097956795379517951794E118F10A430B0D
:10165000560BC90BD00998F023957E9173957A3378
:1016600008F070E37C932013B8F77E9170617D934E
:1016700030F0839571E37D9370E32A95E1F71124AF
:10168000EF90FF900F911F91CF91DF91992787FDE8
:10169000909508952F923F924F925F926F927F9212
:1016A0008F929F92AF92BF92CF92DF92EF92FF9272
:1016B0000F931F93CF93DF93CDB7DEB7CA1BDB0B1E
:1016C0000FB6F894DEBF0FBECDBF09942A883988C3
:1016D00048885F846E847D848C849B84AA84B984CA
:1016E000C884DF80EE80FD800C811B81AA81B981D6
:1016F000CE0FD11D0FB6F894DEBF0FBECDBFED01EA
:1017000008955058BB27AA270E94990B0C949A0C55
:101710000E948C0C38F00E94930C20F039F49F3F0B
:1017200019F426F40C94890C0EF4E095E7FB0C9464
:10173000830CE92F0E94AB0C58F3BA1762077307AA
:101740008407950720F079F4A6F50C94CD0C0EF4DF
:10175000E0950B2EBA2FA02D0B01B90190010C01C1
:10176000CA01A0011124FF27591B99F0593F50F4D9
:10177000503E68F11A16F040A22F232F342F442731
:10178000585FF3CF469537952795A795F040539529
:10179000C9F77EF41F16BA0B620B730B840BBAF0F9
:1017A0009150A1F0FF0FBB1F661F771F881FC2F764
:1017B0000EC0BA0F621F731F841F48F48795779578
:1017C0006795B795F7959E3F08F0B0CF9395880F32
:1017D00008F09927EE0F9795879508950E945F0C62
:1017E00008F481E008950E94B30C88F09F5798F0A8
:1017F000B92F9927B751B0F0E1F0660F771F881F16
:10180000991F1AF0BA95C9F714C0B13091F00E942F
:10181000CD0CB1E008950C94CD0C672F782F88275C
:10182000B85F39F0B93FCCF3869577956795B39556
:10183000D9F73EF490958095709561957F4F8F4FC5
:101840009F4F0895E89409C097FB3EF490958095CA
:10185000709561957F4F8F4F9F4F9923A9F0F92F76
:1018600096E9BB279395F695879577956795B795F4
:10187000F111F8CFFAF4BB0F11F460FF1BC06F5FDA
:101880007F4F8F4F9F4F16C0882311F096E911C0EC
:10189000772321F09EE8872F762F05C0662371F00D
:1018A00096E8862F70E060E02AF09A95660F771F21
:1018B000881FDAF7880F9695879597F90895990FFD
:1018C0000008550FAA0BE0E8FEEF16161706E8070A
:1018D000F907C0F012161306E407F50798F0621B2B
:1018E000730B840B950B39F40A2661F0232B242B00
:1018F000252B21F408950A2609F4A140A6958FEF1F
:10190000811D811D089597F99F6780E870E060E070
:1019100008959FEF80EC089500240A941616170688
:1019200018060906089500240A94121613061406D0
:1019300005060895092E0394000C11F4882352F033
:10194000BB0F40F4BF2B11F460FF04C06F5F7F4FEB
:101950008F4F9F4F089557FD9058440F551F59F0D2
:101960005F3F71F04795880F97FB991F61F09F3F8C
:1019700079F087950895121613061406551FF2CFB5
:101980004695F1DF08C0161617061806991FF1CF05
:1019900086957105610508940895E894BB2766272C
:1019A0007727CB0197F908950E945F0C08F48FEF19
:1019B00008950E94EC0C0C949A0C0E948C0C38F048
:1019C0000E94930C20F0952311F00C94830C0C943E
:1019D000890C11240C94CE0C0E94AB0C70F3959FD3
:1019E000C1F3950F50E0551F629FF001729FBB2716
:1019F000F00DB11D639FAA27F00DB11DAA1F649FB2
:101A00006627B00DA11D661F829F2227B00DA11D64
:101A1000621F739FB00DA11D621F839FA00D611DEA
:101A2000221F749F3327A00D611D231F849F600D0B
:101A3000211D822F762F6A2F11249F5750409AF034
:101A4000F1F088234AF0EE0FFF1FBB1F661F771FC0
:101A5000881F91505040A9F79E3F510580F00C948B
:101A6000830C0C94CE0C5F3FE4F3983ED4F3869540
:101A700077956795B795F795E7959F5FC1F7FE2B2B
:101A8000880F911D9695879597F908950E945F0C90
:101A9000880B990B0895A1E21A2EAA1BBB1BFD010E
:101AA0000DC0AA1FBB1FEE1FFF1FA217B307E4073D
:101AB000F50720F0A21BB30BE40BF50B661F771F95
:101AC000881F991F1A9469F7609570958095909575
:101AD0009B01AC01BD01CF010895EE0FFF1F0590E2
:0A1AE000F491E02D0994F894FFCF73
:101AEA0000000000F901590186014602B70195017B
:101AFA00A901000000006303580374032E03510375
:101B0A003E032F030D0A006E616E00696E66006F58
:101B1A00766600476F7420646174613A20004D6FE5
:101B2A00746F722031206F6E004D6F746F722031A6
:101B3A00206F6666004D6F746F722032206F6E00E0
:101B4A004D6F746F722032206F6666004C69676849
:101B5A007473206F6E004C6967687473206F6666D1
:101B6A0000446F736572206F6E00446F7365722054
:101B7A006F666600566F6C746167653A200043753C
:101B8A007272656E743A20004E6F2066756E6374C9
:101B9A00696F6E20666F722074686973206164646D
:101BAA00726573730053656E64696E67206F75742E
:101BBA007075743A20004166746572207472616EA1
:101BCA0073666F726D3A2000493243205265616430
:041BDA00792100006D
:107E0000112484B714BE81FFF0D085E080938100F7
:107E100082E08093C00088E18093C10086E0809377
:107E2000C20080E18093C4008EE0C9D0259A86E02C
:107E300020E33CEF91E0309385002093840096BBD3
:107E4000B09BFECF1D9AA8958150A9F7CC24DD24C4
:107E500088248394B5E0AB2EA1E19A2EF3E0BF2EE7
:107E6000A2D0813461F49FD0082FAFD0023811F036
:107E7000013811F484E001C083E08DD089C08234E0
:107E800011F484E103C0853419F485E0A6D080C0E4
:107E9000853579F488D0E82EFF2485D0082F10E0AE
:107EA000102F00270E291F29000F111F8ED06801E7
:107EB0006FC0863521F484E090D080E0DECF843638
:107EC00009F040C070D06FD0082F6DD080E0C81688
:107ED00080E7D80618F4F601B7BEE895C0E0D1E017
:107EE00062D089930C17E1F7F0E0CF16F0E7DF06D8
:107EF00018F0F601B7BEE89568D007B600FCFDCFD4
:107F0000A601A0E0B1E02C9130E011968C91119780
:107F100090E0982F8827822B932B1296FA010C0160
:107F200087BEE89511244E5F5F4FF1E0A038BF0790
:107F300051F7F601A7BEE89507B600FCFDCF97BE46
:107F4000E89526C08437B1F42ED02DD0F82E2BD052
:107F50003CD0F601EF2C8F010F5F1F4F84911BD097
:107F6000EA94F801C1F70894C11CD11CFA94CF0C13
:107F7000D11C0EC0853739F428D08EE10CD085E9AC
:107F80000AD08FE07ACF813511F488E018D01DD067
:107F900080E101D065CF982F8091C00085FFFCCF94
:107FA0009093C60008958091C00087FFFCCF809118
:107FB000C00084FD01C0A8958091C6000895E0E648
:107FC000F0E098E1908380830895EDDF803219F02E
:107FD00088E0F5DFFFCF84E1DECF1F93182FE3DFCA
:107FE0001150E9F7F2DF1F91089580E0E8DFEE27F6
:047FF000FF270994CA
:027FFE00040479
:0400000300007E007B
:00000001FF
